{
  "_format": "hh-sol-artifact-1",
  "contractName": "PrivacyLearning",
  "sourceName": "contracts/PrivacyLearning.sol",
  "abi": [
    {
      "inputs": [],
      "stateMutability": "nonpayable",
      "type": "constructor"
    },
    {
      "anonymous": false,
      "inputs": [
        {
          "indexed": true,
          "internalType": "address",
          "name": "student",
          "type": "address"
        },
        {
          "indexed": false,
          "internalType": "uint8",
          "name": "moduleId",
          "type": "uint8"
        },
        {
          "indexed": false,
          "internalType": "uint8",
          "name": "lessonId",
          "type": "uint8"
        }
      ],
      "name": "LessonCompleted",
      "type": "event"
    },
    {
      "anonymous": false,
      "inputs": [
        {
          "indexed": true,
          "internalType": "address",
          "name": "student",
          "type": "address"
        },
        {
          "indexed": false,
          "internalType": "uint8",
          "name": "moduleId",
          "type": "uint8"
        }
      ],
      "name": "ModuleCompleted",
      "type": "event"
    },
    {
      "anonymous": false,
      "inputs": [
        {
          "indexed": true,
          "internalType": "address",
          "name": "student",
          "type": "address"
        }
      ],
      "name": "ProgressUpdated",
      "type": "event"
    },
    {
      "anonymous": false,
      "inputs": [
        {
          "indexed": true,
          "internalType": "address",
          "name": "student",
          "type": "address"
        }
      ],
      "name": "StudentEnrolled",
      "type": "event"
    },
    {
      "inputs": [],
      "name": "LESSONS_PER_MODULE",
      "outputs": [
        {
          "internalType": "uint8",
          "name": "",
          "type": "uint8"
        }
      ],
      "stateMutability": "view",
      "type": "function"
    },
    {
      "inputs": [
        {
          "internalType": "string",
          "name": "_name",
          "type": "string"
        },
        {
          "internalType": "uint8",
          "name": "_totalLessons",
          "type": "uint8"
        }
      ],
      "name": "addModule",
      "outputs": [],
      "stateMutability": "nonpayable",
      "type": "function"
    },
    {
      "inputs": [
        {
          "internalType": "uint8",
          "name": "_moduleId",
          "type": "uint8"
        },
        {
          "internalType": "uint8",
          "name": "_lessonId",
          "type": "uint8"
        },
        {
          "internalType": "bool",
          "name": "_completed",
          "type": "bool"
        }
      ],
      "name": "completeLesson",
      "outputs": [],
      "stateMutability": "nonpayable",
      "type": "function"
    },
    {
      "inputs": [],
      "name": "emergencyWithdraw",
      "outputs": [],
      "stateMutability": "nonpayable",
      "type": "function"
    },
    {
      "inputs": [],
      "name": "enrollStudent",
      "outputs": [],
      "stateMutability": "nonpayable",
      "type": "function"
    },
    {
      "inputs": [
        {
          "internalType": "uint8",
          "name": "_moduleId",
          "type": "uint8"
        }
      ],
      "name": "getModuleInfo",
      "outputs": [
        {
          "internalType": "string",
          "name": "name",
          "type": "string"
        },
        {
          "internalType": "uint8",
          "name": "totalLessons",
          "type": "uint8"
        },
        {
          "internalType": "bool",
          "name": "isActive",
          "type": "bool"
        }
      ],
      "stateMutability": "view",
      "type": "function"
    },
    {
      "inputs": [],
      "name": "getMyCompletedLessons",
      "outputs": [
        {
          "internalType": "uint32",
          "name": "",
          "type": "uint32"
        }
      ],
      "stateMutability": "view",
      "type": "function"
    },
    {
      "inputs": [],
      "name": "getMyLearningStreak",
      "outputs": [
        {
          "internalType": "uint32",
          "name": "",
          "type": "uint32"
        }
      ],
      "stateMutability": "view",
      "type": "function"
    },
    {
      "inputs": [
        {
          "internalType": "uint8",
          "name": "_moduleId",
          "type": "uint8"
        }
      ],
      "name": "getMyModuleProgress",
      "outputs": [
        {
          "internalType": "uint32",
          "name": "",
          "type": "uint32"
        }
      ],
      "stateMutability": "view",
      "type": "function"
    },
    {
      "inputs": [],
      "name": "getMyTotalProgress",
      "outputs": [
        {
          "internalType": "uint32",
          "name": "",
          "type": "uint32"
        }
      ],
      "stateMutability": "view",
      "type": "function"
    },
    {
      "inputs": [],
      "name": "getTotalModules",
      "outputs": [
        {
          "internalType": "uint8",
          "name": "",
          "type": "uint8"
        }
      ],
      "stateMutability": "view",
      "type": "function"
    },
    {
      "inputs": [
        {
          "internalType": "uint8",
          "name": "_moduleId",
          "type": "uint8"
        },
        {
          "internalType": "uint8",
          "name": "_lessonId",
          "type": "uint8"
        }
      ],
      "name": "isLessonCompleted",
      "outputs": [
        {
          "internalType": "bool",
          "name": "",
          "type": "bool"
        }
      ],
      "stateMutability": "view",
      "type": "function"
    },
    {
      "inputs": [
        {
          "internalType": "address",
          "name": "_student",
          "type": "address"
        }
      ],
      "name": "isStudentEnrolled",
      "outputs": [
        {
          "internalType": "bool",
          "name": "",
          "type": "bool"
        }
      ],
      "stateMutability": "view",
      "type": "function"
    },
    {
      "inputs": [
        {
          "internalType": "uint8",
          "name": "",
          "type": "uint8"
        }
      ],
      "name": "learningModules",
      "outputs": [
        {
          "internalType": "string",
          "name": "name",
          "type": "string"
        },
        {
          "internalType": "uint8",
          "name": "totalLessons",
          "type": "uint8"
        },
        {
          "internalType": "bool",
          "name": "isActive",
          "type": "bool"
        }
      ],
      "stateMutability": "view",
      "type": "function"
    },
    {
      "inputs": [],
      "name": "moduleCount",
      "outputs": [
        {
          "internalType": "uint8",
          "name": "",
          "type": "uint8"
        }
      ],
      "stateMutability": "view",
      "type": "function"
    },
    {
      "inputs": [],
      "name": "owner",
      "outputs": [
        {
          "internalType": "address",
          "name": "",
          "type": "address"
        }
      ],
      "stateMutability": "view",
      "type": "function"
    },
    {
      "inputs": [
        {
          "internalType": "uint8",
          "name": "_moduleId",
          "type": "uint8"
        }
      ],
      "name": "toggleModule",
      "outputs": [],
      "stateMutability": "nonpayable",
      "type": "function"
    }
  ],
  "bytecode": "0x60806040523480156200001157600080fd5b50600280546001600160a01b031916331790556200002e62000034565b6200047a565b6040805160a0810182526013606082019081527f43727970746f67726170687920426173696373000000000000000000000000006080830152815260046020808301919091526001928201839052600080529190915280517fa6eef7e35abe7026729641147f7915573c7e97b47efa546f5f6e3230263bcb49908190620000bc9082620003ae565b506020828101516001928301805460409586015115156101000261ffff1990911660ff90931692909217919091179055825160a0810184526017606082019081527f426c6f636b636861696e2046756e64616d656e74616c730000000000000000006080830152815260048183015292830182905260008290525280517fcc69885fda6bcc1a4ace058b4a62bf5e179ea78fd58a1ccd71c22cc9b688792f908190620001699082620003ae565b506020828101516001928301805460409586015115156101000261ffff1990911660ff90931692909217919091179055825160a0810184526014606082019081527f5072697661637920546563686e6f6c6f676965730000000000000000000000006080830152815260048183015292830182905260026000525280517fd9d16d34ffb15ba3a3d852f0d403e2ce1d691fb54de27ac87cd2f993f3ec330f908190620002169082620003ae565b506020828101516001928301805460409586015115156101000261ffff1990911660ff90931692909217919091179055825160a0810184526015606082019081527f416476616e636564204170706c69636174696f6e7300000000000000000000006080830152815260048183015292830182905260036000525280517f7dfe757ecd65cbd7922a9c0161e935dd7fdbcc0e999689c7d31633896b1fc60b908190620002c39082620003ae565b5060208201516001909101805460409093015115156101000261ffff1990931660ff9092169190911791909117905560028054600160a21b60ff60a01b19909116179055565b634e487b7160e01b600052604160045260246000fd5b600181811c908216806200033457607f821691505b6020821081036200035557634e487b7160e01b600052602260045260246000fd5b50919050565b601f821115620003a957600081815260208120601f850160051c81016020861015620003845750805b601f850160051c820191505b81811015620003a55782815560010162000390565b5050505b505050565b81516001600160401b03811115620003ca57620003ca62000309565b620003e281620003db84546200031f565b846200035b565b602080601f8311600181146200041a5760008415620004015750858301515b600019600386901b1c1916600185901b178555620003a5565b600085815260208120601f198616915b828110156200044b578886015182559484019460019091019084016200042a565b50858210156200046a5787850151600019600388901b60f8161c191681555b5050505050600190811b01905550565b611613806200048a6000396000f3fe608060405234801561001057600080fd5b506004361061011b5760003560e01c80638b0e14b8116100b2578063ce3d6aa911610081578063d5319d3811610066578063d5319d3814610274578063db2e21bc14610287578063f58043c11461028f57600080fd5b8063ce3d6aa914610222578063d31d40351461026157600080fd5b80638b0e14b8146101be5780638da5cb5b146101d1578063a6038d8c146101fc578063c352a2b41461020f57600080fd5b806344f5e301116100ee57806344f5e3011461017a5780634c0c016d14610182578063510748e1146101a45780636df2b463146101b657600080fd5b8063312343b614610120578063334f7ac51461014257806335031060146101685780633d8f3de014610172575b600080fd5b6101286102a2565b60405163ffffffff90911681526020015b60405180910390f35b60025461015690600160a01b900460ff1681565b60405160ff9091168152602001610139565b610170610325565b005b610156600481565b610128610461565b6101956101903660046111b9565b6104e3565b604051610139939291906111db565b600254600160a01b900460ff16610156565b610128610626565b6101286101cc3660046111b9565b61069c565b6002546101e4906001600160a01b031681565b6040516001600160a01b039091168152602001610139565b61017061020a3660046111b9565b610774565b61017061021d366004611252565b61085e565b610251610230366004611314565b6001600160a01b031660009081526020819052604090206004015460ff1690565b6040519015158152602001610139565b61017061026f36600461133d565b6109cc565b610251610282366004611389565b610caf565b610170610de0565b61019561029d3660046111b9565b610e80565b3360009081526020819052604081206004015460ff166103005760405162461bcd60e51b815260206004820152601460248201527314dd1d59195b9d081b9bdd08195b9c9bdb1b195960621b60448201526064015b60405180910390fd5b5033600090815260208190526040902060020154640100000000900463ffffffff1690565b3360009081526020819052604090206004015460ff16156103885760405162461bcd60e51b815260206004820152601060248201527f416c726561647920656e726f6c6c65640000000000000000000000000000000060448201526064016102f7565b33600090815260208190526040902060048101805460ff1916600117905560020180546bffffffffffffffffffffffff191690556103c962015180426113df565b336000908152602081905260408120600301919091555b60025460ff600160a01b90910481169082161015610433573360009081526020818152604080832060ff851684526001019091529020805463ffffffff191690558061042b816113f3565b9150506103e0565b5060405133907fcf2a1c3c7a67eb28c4843f17631ff117d727317fc31e3e6b454c9b83dc789cec90600090a2565b3360009081526020819052604081206004015460ff166104ba5760405162461bcd60e51b815260206004820152601460248201527314dd1d59195b9d081b9bdd08195b9c9bdb1b195960621b60448201526064016102f7565b503360009081526020819052604090206002015468010000000000000000900463ffffffff1690565b600254606090600090819060ff600160a01b90910481169085161061053e5760405162461bcd60e51b8152602060048201526011602482015270125b9d985b1a59081b5bd91d5b19481251607a1b60448201526064016102f7565b60ff841660009081526001602052604080822081516060810190925280548290829061056990611412565b80601f016020809104026020016040519081016040528092919081815260200182805461059590611412565b80156105e25780601f106105b7576101008083540402835291602001916105e2565b820191906000526020600020905b8154815290600101906020018083116105c557829003601f168201915b50505091835250506001919091015460ff80821660208085019190915261010090920416151560409283015282519083015192909101519097919650945092505050565b3360009081526020819052604081206004015460ff1661067f5760405162461bcd60e51b815260206004820152601460248201527314dd1d59195b9d081b9bdd08195b9c9bdb1b195960621b60448201526064016102f7565b503360009081526020819052604090206002015463ffffffff1690565b3360009081526020819052604081206004015460ff166106f55760405162461bcd60e51b815260206004820152601460248201527314dd1d59195b9d081b9bdd08195b9c9bdb1b195960621b60448201526064016102f7565b60025460ff600160a01b9091048116908316106107485760405162461bcd60e51b8152602060048201526011602482015270125b9d985b1a59081b5bd91d5b19481251607a1b60448201526064016102f7565b503360009081526020818152604080832060ff8516845260010190915290205463ffffffff165b919050565b6002546001600160a01b031633146107d85760405162461bcd60e51b815260206004820152602160248201527f4f6e6c79206f776e65722063616e2063616c6c20746869732066756e6374696f6044820152603760f91b60648201526084016102f7565b60025460ff600160a01b90910481169082161061082b5760405162461bcd60e51b8152602060048201526011602482015270125b9d985b1a59081b5bd91d5b19481251607a1b60448201526064016102f7565b60ff908116600090815260016020819052604090912001805461ff00198116610100918290049093161502919091179055565b6002546001600160a01b031633146108c25760405162461bcd60e51b815260206004820152602160248201527f4f6e6c79206f776e65722063616e2063616c6c20746869732066756e6374696f6044820152603760f91b60648201526084016102f7565b60025460ff600160a01b90910481161061091e5760405162461bcd60e51b815260206004820152601760248201527f4d6178696d756d206d6f64756c6573207265616368656400000000000000000060448201526064016102f7565b6040805160608101825283815260ff8084166020808401919091526001838501819052600254600160a01b900490921660009081529190529190912081518190610968908261149b565b5060208201516001909101805460409093015115156101000261ffff1990931660ff928316179290921790915560028054600160a01b90049091169060146109af836113f3565b91906101000a81548160ff021916908360ff160217905550505050565b3360009081526020819052604090206004015460ff16610a255760405162461bcd60e51b815260206004820152601460248201527314dd1d59195b9d081b9bdd08195b9c9bdb1b195960621b60448201526064016102f7565b60025460ff600160a01b909104811690841610610a785760405162461bcd60e51b8152602060048201526011602482015270125b9d985b1a59081b5bd91d5b19481251607a1b60448201526064016102f7565b600460ff831610610acb5760405162461bcd60e51b815260206004820152601160248201527f496e76616c6964206c6573736f6e20494400000000000000000000000000000060448201526064016102f7565b60ff80841660009081526001602081905260409091200154610100900416610b355760405162461bcd60e51b815260206004820152601160248201527f4d6f64756c65206e6f742061637469766500000000000000000000000000000060448201526064016102f7565b3360009081526020818152604080832060ff878116855290835281842090861684529091528120805460ff1916831515179055610b7562015180426113df565b3360009081526020819052604090206003015490915081118015610b965750815b15610c615733600090815260208190526040902060030154610bb990600161155b565b8103610c1a57336000908152602081905260409020600201805460019190600890610bf790849068010000000000000000900463ffffffff1661156e565b92506101000a81548163ffffffff021916908363ffffffff160217905550610c4b565b33600090815260208190526040902060020180546bffffffff00000000000000001916680100000000000000001790555b3360009081526020819052604090206003018190555b6040805160ff80871682528516602082015233917f11cf31b05caf2478e773c1d30d9f36b5561e14b0e995297967d2b78f295e37d7910160405180910390a2610ca984610f30565b50505050565b3360009081526020819052604081206004015460ff16610d085760405162461bcd60e51b815260206004820152601460248201527314dd1d59195b9d081b9bdd08195b9c9bdb1b195960621b60448201526064016102f7565b60025460ff600160a01b909104811690841610610d5b5760405162461bcd60e51b8152602060048201526011602482015270125b9d985b1a59081b5bd91d5b19481251607a1b60448201526064016102f7565b600460ff831610610dae5760405162461bcd60e51b815260206004820152601160248201527f496e76616c6964206c6573736f6e20494400000000000000000000000000000060448201526064016102f7565b503360009081526020818152604080832060ff8087168552908352818420858216855290925290912054165b92915050565b6002546001600160a01b03163314610e445760405162461bcd60e51b815260206004820152602160248201527f4f6e6c79206f776e65722063616e2063616c6c20746869732066756e6374696f6044820152603760f91b60648201526084016102f7565b6002546040516001600160a01b03909116904780156108fc02916000818181858888f19350505050158015610e7d573d6000803e3d6000fd5b50565b600160205260009081526040902080548190610e9b90611412565b80601f0160208091040260200160405190810160405280929190818152602001828054610ec790611412565b8015610f145780601f10610ee957610100808354040283529160200191610f14565b820191906000526020600020905b815481529060010190602001808311610ef757829003601f168201915b5050506001909301549192505060ff8082169161010090041683565b6000805b600460ff82161015610f8f573360009081526020818152604080832060ff80881685529083528184208582168552909252909120541615610f7d57610f7a60018361156e565b91505b80610f87816113f3565b915050610f34565b506000610f9d826019611592565b3360009081526020818152604080832060ff881684526001019091528120805463ffffffff191663ffffffff8416179055909150805b60025460ff600160a01b9091048116908216101561102e573360009081526020818152604080832060ff8516845260010190915290205461101a9063ffffffff168361156e565b915080611026816113f3565b915050610fd3565b5060025461104690600160a01b900460ff16826115ba565b336000908152602081905260408120600201805463ffffffff191663ffffffff9390931692909217909155805b60025460ff600160a01b909104811690821610156110fc5760005b600460ff821610156110e9573360009081526020818152604080832060ff808716855290835281842085821685529092529091205416156110d7576110d460018461156e565b92505b806110e1816113f3565b91505061108e565b50806110f4816113f3565b915050611073565b50336000908152602081905260409020600201805463ffffffff8084166401000000000267ffffffff00000000199092169190911790915583166064036111765760405160ff8616815233907f7975ced3c0384fa1c2fbc2c7b1fb445081f90f1d05851309ca3bc43c6f817c299060200160405180910390a25b60405133907fadecfb858aa852222496052e11ef4c9d1b099379692766380d59b22438c8568e90600090a25050505050565b803560ff8116811461076f57600080fd5b6000602082840312156111cb57600080fd5b6111d4826111a8565b9392505050565b606081526000845180606084015260005b8181101561120957602081880181015160808684010152016111ec565b506000608082850101526080601f19601f83011684010191505060ff841660208301528215156040830152949350505050565b634e487b7160e01b600052604160045260246000fd5b6000806040838503121561126557600080fd5b823567ffffffffffffffff8082111561127d57600080fd5b818501915085601f83011261129157600080fd5b8135818111156112a3576112a361123c565b604051601f8201601f19908116603f011681019083821181831017156112cb576112cb61123c565b816040528281528860208487010111156112e457600080fd5b82602086016020830137600060208483010152809650505050505061130b602084016111a8565b90509250929050565b60006020828403121561132657600080fd5b81356001600160a01b03811681146111d457600080fd5b60008060006060848603121561135257600080fd5b61135b846111a8565b9250611369602085016111a8565b91506040840135801515811461137e57600080fd5b809150509250925092565b6000806040838503121561139c57600080fd5b6113a5836111a8565b915061130b602084016111a8565b634e487b7160e01b600052601260045260246000fd5b634e487b7160e01b600052601160045260246000fd5b6000826113ee576113ee6113b3565b500490565b600060ff821660ff8103611409576114096113c9565b60010192915050565b600181811c9082168061142657607f821691505b60208210810361144657634e487b7160e01b600052602260045260246000fd5b50919050565b601f82111561149657600081815260208120601f850160051c810160208610156114735750805b601f850160051c820191505b818110156114925782815560010161147f565b5050505b505050565b815167ffffffffffffffff8111156114b5576114b561123c565b6114c9816114c38454611412565b8461144c565b602080601f8311600181146114fe57600084156114e65750858301515b600019600386901b1c1916600185901b178555611492565b600085815260208120601f198616915b8281101561152d5788860151825594840194600190910190840161150e565b508582101561154b5787850151600019600388901b60f8161c191681555b5050505050600190811b01905550565b80820180821115610dda57610dda6113c9565b63ffffffff81811683821601908082111561158b5761158b6113c9565b5092915050565b63ffffffff8181168382160280821691908281146115b2576115b26113c9565b505092915050565b600063ffffffff808416806115d1576115d16113b3565b9216919091049291505056fea26469706673582212208a5cb8d55e95bda3616ea3f84a985f8b3aad5817576b3561fc52144d97c7ca5964736f6c63430008130033",
  "linkReferences": {},
  "deployedLinkReferences": {}
}